:020000040800F2
:1000000000500020A12E0008110C0008190C000857
:100010001B0C00081D0C00081F0C0008000000004D
:10002000000000000000000000000000210C00089B
:10003000230C000800000000250C0008270C000815
:10004000E92E0008E92E0008E92E0008E92E000834
:10005000E92E0008E92E0008E92E0008E92E000824
:10006000E92E0008E92E0008E92E0008E92E000814
:10007000E92E0008E92E0008E92E0008E92E000804
:10008000E92E0008E92E0008E92E0008E92E0008F4
:10009000350C0008E92E0008E92E0008E92E0008BA
:1000A000E92E0008E92E0008E92E0008E92E0008D4
:1000B000E92E0008E92E0008E92E0008E92E0008C4
:1000C000E92E0008E92E0008E92E0008E92E0008B4
:1000D000E92E0008E92E0008E92E0008E92E0008A4
:1000E000E92E0008E92E0008E92E000800000000B3
:1000F0000000000000000000000000000000000000
:0C01000000000000000000005FF808F1A3
:10010C0010B5054C237833B9044B13B10448AFF345
:10011C0000800123237010BD380100200000000076
:10012C00D43700080C4B43B10C4810B50C49AFF355
:10013C0000800C48036823B910BD0A48036833B922
:10014C007047094B002BF7D0BDE810401847064B01
:10015C00002BF5D0184700BF00000000D437000872
:10016C003C010020380100200000000070B582B076
:10017C000446036813F0010F34D03E4BDB6913F0D7
:10018C00805F48D13B4BDA6942F08052DA61DB691F
:10019C0003F080530193019B0125374B1B6813F42B
:1001AC00807F3AD0334B1B6A13F4407311D06268D2
:1001BC0002F4407293420CD02E4A136A23F440701E
:1001CC002E4901260E6000260E60106213F0010FFE
:1001DC0037D1284A136A23F4407361680B431362C6
:1001EC00002D3FD1236813F0020F06D0214A53682B
:1001FC0023F44043A1680B435360236813F0100FA2
:10020C0035D01C4A536823F48003E1680B435360D8
:10021C00002002B070BD0025BFE7174A136843F4F5
:10022C008073136000F0D6FC0646134B1B6813F466
:10023C00807FB7D100F0CEFC801B6428F5D9032059
:10024C00E7E700F0C7FC06460A4B1B6A13F0020FE7
:10025C00BFD100F0BFFC801B41F288339842F3D928
:10026C000320D6E7D36923F08053D361BAE700208B
:10027C00CFE700BF00100240007000404004424233
:10028C00002866D0F0B587B0044690F82934C3B185
:10029C00032384F82934206801F04EFF254655F8D5
:1002AC00107B6E460FCD0FC62B683360231D0ECB13
:1002BC00384601F031FF0021206801F047FF002390
:1002CC0015E080F8283402F0EFFBE1E704EB431271
:1002DC00012182F8291082F828309386002182F8B7
:1002EC002B109163D1639A1C5201A15001330E2B38
:1002FC00ECD9002312E004EB4312002182F82912FE
:10030C0082F82832938682F82B12C2F83812C2F87F
:10031C003C1203F112025201A15001330E2BEAD907
:10032C00254655F8107B6E460FCD0FC62B683360F3
:10033C00231D0ECB384601F00BFF002584F824500A
:10034C00012384F82934206802F01BFA284607B0F0
:10035C00F0BD0120704790F82834012B01D1022008
:10036C00704710B50446012180F8281402F0C5FC32
:10037C00206802F004FA206801F0D5FE002084F811
:10038C00280410BD90F82834012B01D102207047AD
:10039C0010B50446012380F8283480F82410006836
:1003AC0002F0E7F9002084F8280410BD38B54DB2EE
:1003BC00002D12DB01F07F04640104F50A7404447F
:1003CC0001F07F012170ED0F65702261E37090F8F0
:1003DC002834012B07D1022038BD01F07F046401C1
:1003EC0028340444ECE70546012380F828342146E0
:1003FC00006801F0C3FE002085F8280438BD4AB21D
:10040C00002A10DB01F07F035B0103F50A73034440
:10041C0001F07F011970D20F5A7090F82824012A2C
:10042C0007D10220704701F07F035B01283303449E
:10043C00EEE710B50446012280F82824194600681E
:10044C0002F035F8002084F8280410BD70B501F0D6
:10045C007F056C0104F50A7101440444C4F83C2284
:10046C0005F112025201861883500023736084F840
:10047C00293284F8285225B1006802F09FF9002037
:10048C0070BD006802F09AF9F9E770B501F07F05CC
:10049C006C0104F1280101440444E263AA1C5201DA
:1004AC008618835000237360012384F8293084F864
:1004BC00285025B1006802F081F9002070BD006859
:1004CC0002F07CF9F9E770B582B005460023ADF86F
:1004DC000630ADF8043095E103889BB223F4E14378
:1004EC0023F070039BB203802A68B2F850309BB2A1
:1004FC0095F8281003EBC103023302EB4303D3F846
:10050C000034C3F309036B64EA6B1344EB630021FF
:10051C00284602F0FBFA95F82430002B00F072818B
:10052C002B6C002B40F06E812A6895F8243043F038
:10053C008003A2F84C30002385F8243062E1B0F837
:10054C0050309BB295F8282203EBC203063300EB24
:10055C004303D3F80034C3F30903C5F84432B5F8A8
:10056C002C2205F22C4102F08FFA2A68138823F012
:10057C0070031B051B0D1380284602F0B5FA41E1F0
:10058C00B5F82C22D5F83C1202F07EFAD5F84422AC
:10059C00D5F83C321344C5F83C3272E1C1F34F023A
:1005AC0011F0010F01D0013292B2920292B2C3F853
:1005BC00002484E130F824309BB2ADF80430BDF84F
:1005CC00043013F4004F36D1BDF8043013F0800F13
:1005DC0000F018812A6832F824309BB223F4E143EE
:1005EC0023F070039BB222F8243005EB441393F8EC
:1005FC003230002B40F0B6802868B0F850309BB2F7
:10060C0005EB441292F8282003EBC203023300EBF3
:10061C004303D3F80034C3F30903A21C05EB4212C5
:10062C005360002B00F0CD8005EB44118A8DC96B13
:10063C0002F0AFF8C5E030F8243023F070031B054E
:10064C001B0D20F8243005EB441393F83232DBB940
:10065C002868B0F850309BB205EB441292F828226F
:10066C0003EBC203063300EB4303B3F80064C6F399
:10067C0009068EB305EB44113346B1F82C22D1F8A0
:10068C003C1202F001FA27E0286805EB441393F8BA
:10069C00282230F8223013F4804F43D0B0F8503079
:1006AC009BB203EBC203023300EB4303B3F80064C9
:1006BC00C6F3090666BB2A6805EB441393F82812A7
:1006CC0032F8213023F0F0031B051B0D43F40043DB
:1006DC0043F0C00322F8213004F112035B01E91846
:1006EC004A6832444A6005EB4411D1F83C2232444A
:1006FC00C1F83C22EB581BB1D1F838128E4229D2EA
:10070C0005EB441393F82812284602F0F5F95BE741
:10071C0005EB44113346B1F82E22D1F83C1202F00D
:10072C00B3F9C8E7B0F850309BB203EBC203063301
:10073C0000EB4303B3F80064C6F30906002EBAD0ED
:10074C0005EB44113346B1F83022D1F83C1202F0DB
:10075C009BF9B0E705EB441191F828122846FFF7F6
:10076C0075FE31E7286805EB441393F8282030F820
:10077C00223013F0400F00F0B880B0F850309BB22C
:10078C0003EBC203023300EB4303D3F80034C3F38F
:10079C000903A21C05EB42125360002B40F09E8013
:1007AC002A6805EB441393F8281032F8213023F013
:1007BC00F0031B051B0D43F4404343F0800322F868
:1007CC0021302A68B2F850309BB205EB441090F8F7
:1007DC00281003EBC103023302EB4303D3F80024CC
:1007EC00C2F30902A31C5B01E9184A60C16B0A44FD
:1007FC00C263EB58002B40F0928090F828102846EA
:10080C0002F084F92868B0F844309BB2ADF8063099
:10081C0013F4004F00F08B80BDF8064014F00F0469
:10082C007FF4C8AEBDF8063013F0100F3FF454AE91
:10083C0003889BB2ADF80430BDF8043013F4006F9C
:10084C007FF47DAEBDF8043013F4004FDAD003888A
:10085C0023F070031B051B0D03802868B0F8503083
:10086C009BB295F8282203EBC203063300EB43033B
:10087C00D3F80034C3F30903C5F84432002B7FF4DA
:10088C007FAE0021284602F037F92A68B2F85030C2
:10089C009BB2063302EB4303D5F838123E297FF6A0
:1008AC007DAEC1F34F1211F01F0F01D1013A92B27C
:1008BC006FEAC2626FEA524292B2C3F800242A680D
:1008CC0013889BB223F4804323F0700383F44053CA
:1008DC0043F4004343F08003138093E705EB44118A
:1008EC00CA8DC96B01F055FF5AE7B0F850309BB276
:1008FC0003EBC203063300EB4303D3F80034C3F31A
:10090C000903A21C05EB42125360002B3FF448AFC5
:10091C0005EB44110A8EC96B01F03BFF40E705EB78
:10092C00441494F828102846FFF7AFFD6AE700201E
:10093C0002B070BD10B50446006801F024FF10F43D
:10094C00004F45D1206801F01EFF10F4806F43D199
:10095C00206801F018FF10F4804F08D02268B2F81C
:10096C0044309BB223F480439BB2A2F844302068FD
:10097C0001F009FF10F4005F08D02268B2F844308F
:10098C009BB223F400539BB2A2F84430206801F0D0
:10099C00FAFE10F4805F30D1206801F0F4FE10F400
:1009AC00006F49D1206801F0EEFE10F4007F66D193
:1009BC00206801F0E8FE10F4807F08D02268B2F8BD
:1009CC0044309BB223F480739BB2A2F8443010BD28
:1009DC002046FFF778FDB5E72268B2F844309BB2A9
:1009EC0023F480639BB2A2F84430204602F09DF8B9
:1009FC0000212046FFF7C6FCAAE72268B2F8403077
:100A0C009BB223F004039BB2A2F840302268B2F8E8
:100A1C0040309BB223F008039BB2A2F84030204632
:100A2C0002F0A0F82268B2F844309BB223F4805351
:100A3C009BB2A2F84430AFE72268B2F840309BB2C8
:100A4C0043F00803A2F840302268B2F844309BB25D
:100A5C0023F400639BB2A2F844302268B2F8403011
:100A6C009BB243F00403A2F84030206801F08BFEE7
:100A7C0010F4805F96D1204602F064F892E7226869
:100A8C00B2F844309BB223F400739BB2A2F844300A
:100A9C00204602F044F88BE738B54AB2002A10DB46
:100AAC004B0103F50A73034401249C7001F07F048D
:100ABC001C70D20F5A7090F82824012A07D10220FA
:100ACC0038BD01F07F035B0128330344ECE7054696
:100ADC00012280F828241946006801F0CAFD1CB1D7
:100AEC00002085F8280438BD05F22C41286801F057
:100AFC004EFEF5E710B54AB2002A10DB4B0103F5A8
:100B0C000A73034400249C7001F07F011970D20F0A
:100B1C005A7090F82824012A07D1022010BD01F048
:100B2C007F035B0128330344ECE70446012280F881
:100B3C0028241946006801F0D3FD002084F828040D
:100B4C0010BD11F0800F0CD001F07F01490128314C
:100B5C0001445AB101228A72CB801B0C0B810020FC
:100B6C007047490101F50A710144F2E78A728B80E2
:100B7C00F5E7000010B50446074B1868074BA3FBBC
:100B8C000030800900F0A8F8002221464FF0FF3019
:100B9C0000F064F8002010BD00000020D34D62105E
:100BAC0008B5074A136843F010031360032000F0E4
:100BBC0043F80020FFF7DEFF01F064FA002008BDC7
:100BCC0000200240024A136801331360704700BFD3
:100BDC00F8010020014B1868704700BFF801002095
:100BEC0030B583B00190FFF7F5FF0546019CB4F1D9
:100BFC00FF3F00D00134FFF7EDFF401BA042FAD3BA
:100C0C0003B030BD08B500F099FB08BDFEE7FEE768
:100C1C00FEE7FEE770477047704708B5FFF7D2FF55
:100C2C0000F081F808BD000008B50248FFF782FE0D
:100C3C0008BD00BFFC010020074AD36823F4E06321
:100C4C001B041B0C000200F4E060184340F0BF6072
:100C5C0040F40030D060704700ED00E030B4164B2B
:100C6C00DB68C3F30223C3F10704042C28BF04245C
:100C7C001D1D062D17D9033B012505FA04F4013C73
:100C8C002140994005FA03F3013B13401943002816
:100C9C000BDB0901C9B200F1604000F5614080F83E
:100CAC00001330BC70470023E6E700F00F00090189
:100CBC00C9B2024B1954F4E700ED00E014ED00E06A
:100CCC00420900F01F00012303FA00F0014B43F826
:100CDC002200704700E100E00138B0F1807F0AD2B9
:100CEC00064B5860F021064A82F8231000209860C9
:100CFC0007221A6070470120704700BF10E000E027
:100D0C0000ED00E0042805D0054A136823F0040325
:100D1C0013607047024A136843F004031360704772
:100D2C0010E000E0704708B5FFF7FCFF08BD0000BD
:100D3C0082B0084B1B68084AA2FB03235B0A00FB2A
:100D4C0003F0019000BF019B5A1E0192002BF9D1B8
:100D5C0002B0704700000020D34D621070B582B015
:100D6C000446036813F0010F3DD0AC4B5B6803F0F5
:100D7C000C03042B2ED0A94B5B6803F00C03082B3F
:100D8C0023D06368B3F5803F51D0002B55D103F1CC
:100D9C00804303F504331A6822F480321A601A680F
:100DAC0022F480221A606368002B60D0FFF712FFD8
:100DBC0005469A4B1B6813F4003F14D1FFF70AFF4A
:100DCC00401B6428F5D90320AFE1944B5B6813F406
:100DDC00803FD6D0914B1B6813F4003F03D063685F
:100DEC00002B00F09F81236813F0020F65D08B4B12
:100DFC005B6813F00C0F4ED0884B5B6803F00C0350
:100E0C00082B43D02369002B79D00122844B1A6024
:100E1C00FFF7E0FE0546814B1B6813F0020F65D10E
:100E2C00FFF7D8FE401B0228F5D903207DE17B4A51
:100E3C00136843F480331360B5E7B3F5A02F09D0E2
:100E4C00764B1A6822F480321A601A6822F48022D7
:100E5C001A60A8E703F18043A3F53C331A6842F407
:100E6C0080221A601A6842F480321A609BE7FFF7FE
:100E7C00B1FE0546694B1B6813F4003FB3D0FFF776
:100E8C00A9FE401B6428F5D903204EE1634B5B6837
:100E9C0013F4803FB6D1614B1B6813F0020F04D0E2
:100EAC002369012B01D001203FE15C4A136823F038
:100EBC00F803616943EAC1031360236813F0080F58
:100ECC0032D0A369002B6ED00122564B1A60FFF76B
:100EDC0081FE0546514B5B6A13F0020F21D1FFF7DF
:100EEC0079FE401B0228F5D903201EE14B4A1368FA
:100EFC0023F0F803616943EAC1031360DDE70022C4
:100F0C00474B1A60FFF766FE0546444B1B6813F00F
:100F1C00020FD2D0FFF75EFE401B0228F5D903204A
:100F2C0003E10120FFF704FF236813F0040F00F026
:100F3C0099803A4BDB6913F0805F46D1374BDA6905
:100F4C0042F08052DA61DB6903F080530193019B1C
:100F5C000125354B1B6813F4807F38D0E368012BD7
:100F6C0049D0002B4DD103F1804303F504331A6AA9
:100F7C0022F001021A621A6A22F004021A62E36871
:100F8C00002B5DD0FFF726FE0646244B1B6A13F0A0
:100F9C00020F66D1FFF71EFE801B41F28833984288
:100FAC00F3D90320C1E000221E4B1A60FFF712FE9A
:100FBC0005461A4B5B6A13F0020FB5D0FFF70AFE19
:100FCC00401B0228F5D90320AFE00025C1E7164AE3
:100FDC00136843F480731360FFF7FCFD0646124B55
:100FEC001B6813F4807FB9D1FFF7F4FD801B6428D4
:100FFC00F5D9032099E0094A136A43F001031362FF
:10100C00BDE7052B12D0054B1A6A22F001021A62B9
:10101C001A6A22F004021A62B1E700BF0010024003
:10102C00000042428004424200700040414B1A6A68
:10103C0042F004021A621A6A42F001021A629EE736
:10104C00FFF7C8FD06463B4B1B6A13F0020F08D096
:10105C00FFF7C0FD801B41F288339842F3D903207F
:10106C0063E0E5B9E369002B5ED0324A526802F0C6
:10107C000C02082A5BD0022B17D000222E4B1A60D0
:10108C00FFF7A8FD04462B4B1B6813F0007F47D0DD
:10109C00FFF7A0FD001B0228F5D9032045E0254AE7
:1010AC00D36923F08053D361DCE70022224B1A6012
:1010BC00FFF790FD05461F4B1B6813F0007F06D011
:1010CC00FFF788FD401B0228F5D903202DE0236A89
:1010DC00B3F5803F1AD017494B6823F47413226A76
:1010EC00606A024313434B600122134B1A60FFF7F3
:1010FC0071FD04460F4B1B6813F0007F0ED1FFF7F8
:10110C0069FD001B0228F5D903200EE0094A53683B
:10111C0023F40033A1680B435360DCE7002004E0A8
:10112C00002002E0012000E0002002B070BD012090
:10113C00FBE700BF00100240600042420122014B5D
:10114C001A6070474C00424210B586B0154C94E8BA
:10115C000F000DF1180E0EE90F00238AADF80430C4
:10116C00114B5B6803F00C02082A18D1C3F38342BD
:10117C00724412F8100C13F4803F03D10B4B03FB99
:10118C0000F00DE0084B5B68C3F34043734413F865
:10119C00142C074BB3FBF2F303FB00F000E0044804
:1011AC0006B010BDEC3700080010024000093D00ED
:1011BC0000127A00594B1B6803F007038B420CD2C8
:1011CC00564A136823F007030B431360136803F0AC
:1011DC000703994201D00120704770B5036813F0E2
:1011EC00020F06D04E4A536823F0F0038468234361
:1011FC0053600D460446036813F0010F52D0436848
:10120C00012B23D0022B28D0454A126812F0020F72
:10121C0000F0828042494A6822F0030213434B607B
:10122C00FFF7D8FC06466368012B1DD0022B2AD091
:10123C003B4B5B6813F00C0F34D0FFF7CBFC801BDF
:10124C0041F288339842F3D9032070BD344A1268B6
:10125C0012F4003FDED1012070BD314A126812F049
:10126C00007FD7D1012070BD2D4B5B6803F00C03C0
:10127C00042B17D0FFF7AEFC801B41F28833984249
:10128C00F2D9032070BD264B5B6803F00C03082BCE
:10129C0008D0FFF79FFC801B41F288339842F2D9AB
:1012AC00032070BD1D4B1B6803F007039D420CD23D
:1012BC001A4A136823F007032B431360136803F0D7
:1012CC0007039D4201D0012070BD236813F0040F69
:1012DC0006D0134A536823F4E063E1680B43536070
:1012EC00236813F0080F07D00D4A536823F460539A
:1012FC00216943EAC1035360FFF726FF084B5B6883
:10130C00C3F30313074AD35CD840074B1860002083
:10131C00FFF730FC002070BD012070BD00200240A2
:10132C00001002403838000800000020014B1868FB
:10133C00704700BF000000207047000008B5064B46
:10134C009B6813F0800F00D108BDFFF7F5FF8022DA
:10135C00024B1A70F8E700BF001002400A1002405E
:10136C00F0B589B0274B9A6942F010029A619A69DC
:10137C0002F010020092009A9A6942F020029A61DF
:10138C009A6902F020020192019A9A6942F00402D1
:10139C009A619A6902F004020292029A9A6942F0E6
:1013AC0008029A619B6903F008030393039B164F91
:1013BC0000220F21384600F02DFD144C00224FF472
:1013CC00C071204600F026FD0F23049301260596DC
:1013DC000225079504A9384600F026FC4023049307
:1013EC0000230593069304A9204600F01DFC4FF43E
:1013FC00C07304930596079504A9204600F014FCCD
:10140C0009B0F0BD0010024000080140000C014082
:10141C00FEE7000000B595B001220A924FF480332C
:10142C000B9300210C910E920222119212934FF405
:10143C00E01313930AA8FFF791FC58BB0F230593F5
:10144C0002210691002307934FF4806208920993BE
:10145C0005A8FFF7AFFE08BB1023019300230493EC
:10146C0001A8FEF783FEE8B9FFF768FEFFF75EFF01
:10147C000E4BA3FB00308009FFF72EFC0420FFF776
:10148C0041FC002211464FF0FF30FFF7E7FB15B08F
:10149C005DF804FBBD210648FFF7BAFFCB210448D9
:1014AC00FFF7B6FFD2210248FFF7B2FFD34D62100F
:1014BC000038000830B583B002238DF804300024C6
:1014CC008DF80540FFF76CFBFFF7A4FFFFF748FF13
:1014DC0001F014FC104B1968104801F087FC2146F0
:1014EC000F4801F083FC80238DF805300D4D02224E
:1014FC0001A9284600F084FB1E20FFF771FB002396
:10150C008DF80530022201A9284600F079FB1E2037
:10151C00FFF766FB0134E2E7000000200C380008FE
:10152C00243800085C060020002302E00133DBB203
:10153C0001300278002AF9D1184670474B88012BEC
:10154C0000D0704710B50446C0F80432D0F81432FD
:10155C009B689847204600F0A8FA10BD0B780370E2
:10156C004B7843708B78CA7803EB022343800B795A
:10157C004A7903EB022383808B79CA7903EB02232C
:10158C00C380704710B50446802101F058FB002140
:10159C00204601F054FB10BD30B583B004460D4617
:1015AC004A88130A013B062B00F28180DFE803F026
:1015BC000413277F7F637000D0F810321B680DF185
:1015CC000601007C9847BDF8062012B1EB88002B71
:1015DC0071D103B030BD037C43B9D0F814329B6A8F
:1015EC000DF10600984702234370ECE7D0F8143253
:1015FC00DB6A0DF10600984702234370E3E7D2B291
:10160C00052A34D8DFE802F0030B131B232BD0F888
:10161C0010325B680DF10601007C9847D3E7D0F8D7
:10162C0010329B680DF10601007C9847CBE7D0F88F
:10163C001032DB680DF10601007C9847C3E7D0F847
:10164C0010321B690DF10601007C9847BBE7D0F8FE
:10165C0010325B690DF10601007C9847B3E7D0F8B6
:10166C0010329B690DF10601007C9847ABE72946C7
:10167C00FFF788FFADE7037C33B9D0F814325B6B0E
:10168C000DF1060098479EE72946FFF77BFFA0E780
:10169C00037C43B9D0F814321B6B0DF1060098474C
:1016AC00072343708FE72946FFF76CFF91E7294624
:1016BC00FFF768FF8DE79A4228BF1A46ADF806205F
:1016CC000146204600F0D4F983E738B504468B88F0
:1016DC00E3B9CB88D3B98D7805F07F0590F8FC3150
:1016EC00032B0CD080F8FE51294601F0D7FA204686
:1016FC0000F0DBF935B1022384F8FC3138BDFFF77B
:10170C0041FF38BD012384F8FC3138BD2046FFF77A
:10171C0039FF38BD38B504460D468978254B19700C
:10172C00012909D890F8FC31022B09D0032B1CD0CD
:10173C002946FFF727FF38BD2946FFF723FF38BDA1
:10174C0081B14160032380F8FC3100F08CFB02284E
:10175C0003D0204600F0A9F938BD29462046FFF7F2
:10176C0011FF38BD00F0A1F938BD89B14368994229
:10177C001DD0D9B200F084FB0E4B19786160204665
:10178C0000F071FB02280DD0204600F08EF938BD18
:10179C00022380F8FC31416000F072FB204600F01F
:1017AC0084F938BD29462046FFF7ECFE38BD00F021
:1017BC007CF938BD5401002008B5CB88012B08D129
:1017CC0090F8FC31022B07D0032B0DD0FFF7DAFE7B
:1017DC0008BDFFF7D7FE08BD0146002341F8083FBE
:1017EC00012200F045F908BD0122011D00F040F96D
:1017FC0008BD08B590F8FC31023B012B0CD8002336
:10180C00C360D0F804320BB10223C360022200F192
:10181C000C0100F02DF908BDFFF7B4FE08BD10B5A2
:10182C00044690F8FC31023B012B0ED84B88012B5F
:10183C0000D010BD0023C0F80432D0F814329B68DD
:10184C009847204600F031F910BDFFF79BFEF0E7FA
:10185C0008B54B78092B1CD8DFE803F012181B15C0
:10186C001B09051B0F0CFFF797FE002008BDFFF7A7
:10187C002CFFFAE7FFF74EFFF7E7FFF79DFFF4E7C2
:10188C00FFF7B7FFF1E7FFF759FEEEE7FFF7C7FFEA
:10189C00EBE7FFF777FEE8E738B504460D4690F81E
:1018AC00FC31032B11D10B79012B03D9FFF76AFE05
:1018BC00002038BDD0F814329B689847EB88002B79
:1018CC00F6D1204600F0F1F8F2E7FFF75BFEEFE708
:1018DC0038B505460C468A880B7803F06003202B3C
:1018EC0011D0D1B26378012B2BD0002B4DD0032B10
:1018FC000DD190F8FC31022B0BD0032B10D02146CC
:10190C00FFF740FE03E0D0F814329B6898470020A4
:10191C0038BD0029FBD08029F9D001F090F9F6E709
:10192C00638823B919B1802901D001F088F9D5F861
:10193C0014329B68214628469847284600F0B5F893
:10194C00E5E790F8FC31022B05D0032B0AD0214699
:10195C00FFF718FEDBE70029D9D08029D7D001F09A
:10196C006EF9D4E76388002BD1D111F07F0F03D12E
:10197C00284600F09AF8CAE701F06FF9D5F814324E
:10198C009B68214628469847F2E790F8FC31022BD9
:10199C0005D0032B09D02146FFF7F4FDB7E711F072
:1019AC007F0FB4D001F04BF9B1E712F0800F11D1D9
:1019BC0001F07F04103400EB04140434284601F0C9
:1019CC005AF970B10123236002222146284600F007
:1019DC004FF89CE701F07F04013400EB041404344D
:1019EC00ECE700232360EFE7D0B170B50D46164647
:1019FC000446FFF799FD0130400080B2308028701A
:101A0C0003236B70022307E05A1CD2B20134E95451
:101A1C000233DBB20021A95421780029F4D170BD26
:101A2C00704700000F4B1A6842F001021A605968A7
:101A3C000D4A0A405A601A6822F0847222F48032ED
:101A4C001A601A6822F480221A605A6822F4FE0284
:101A5C005A604FF41F029A604FF00062034B9A6079
:101A6C00704700BF001002400000FFF800ED00E0DE
:101A7C0010B513460222C0F8F4218361C3610A46F3
:101A8C00002101F019F9002010BD08B513460A46D3
:101A9C00002101F011F9002008BD08B513460A46D3
:101AAC00002101F017F9002008BD08B50423C0F887
:101ABC00F43100231A46194601F0FEF8002008BD47
:101ACC0008B50523C0F8F43100231A46194601F075
:101ADC0001F9002008BD0000222303800048704754
:101AEC0064000020D0F818320020187370470000F2
:101AFC000A230380004870479400002010B5D0F8EA
:101B0C0018420B7813F0600325D0202B4FD14B7863
:101B1C00023B092B1BD8DFE803F014091A1A1A1A16
:101B2C001A1A0F058B782360002010BD0122214664
:101B3C00FFF79EFF002010BD4B881B0A636000203E
:101B4C0010BD0122211DFFF793FF002010BDFFF7F0
:101B5C0019FD022010BD4B780A2B1DD00B2B22D067
:101B6C00062B01D0002010BD4B881B0A222B07D05E
:101B7C00212B0BD000210A46FFF77AFF002010BD65
:101B8C00CA88252A28BF25220A49F5E7CA88092AC6
:101B9C0028BF09220849EFE7012204F10801FFF7E9
:101BAC0067FF002010BD8B78A360002010BD0020C3
:101BBC0010BD00BF040000208800002010B50446B2
:101BCC00812101F02EF8D4F8180220B101F094F81C
:101BDC000023C4F81832002010BD10B504460523AC
:101BEC000322812101F00CF8102001F081F8C4F8D7
:101BFC00180218B100230373184610BD012010BD44
:101C0C0038B5D0F8185290F8FC41032C01D00020C4
:101C1C0038BD2B7B002BFAD113460A4601212973C0
:101C2C00812101F049F8F2E7F0B583B00026344683
:101C3C0071E0002D00F0A180012D00D1CE68FF2BAA
:101C4C0000F2AF808646FF2B00F2AE80A500DEF8D6
:101C5C0000200F27AF4022EA070206FA05F52A43B7
:101C6C00CEF800204A6812F0805F53D0634A956921
:101C7C0045F001059561926902F001020192019A09
:101C8C00A508AF1C5E4A52F8272004F00307BF00DA
:101C9C004FF00F0E0EFA07FE22EA0E02DFF870E18B
:101CAC00704500F088800EF5806E704500F08680DF
:101CBC000EF5806E704500F084800EF5806E7045D8
:101CCC0076D04FF0040E0EFA07F73A4302354C4F1C
:101CDC0047F825204A6812F4803F75D0494D2A6890
:101CEC001A432A604A6812F4003F73D0454D6A6863
:101CFC001A436A604A6812F4801F71D0414DAA6879
:101D0C001A43AA604A6812F4001F6FD03D4DEA686E
:101D1C001343EB6001340F2C6ED80122A2400B68E8
:101D2C0013409A42F6D14D68122D30D00BD8022DAB
:101D3C002AD07FF67EAF032D2FD0112D7FF47FAFED
:101D4C00CE6804367BE7304FBD4216D00CD92F4FEE
:101D5C00BD4212D007F58037BD420ED0A7F58017D3
:101D6C00BD427FF46CAF08E0A7F58017BD4204D0EC
:101D7C0007F58037BD427FF462AF8D687DB1012DD0
:101D8C0008D0426108265AE7CE68083657E7CE6875
:101D9C000C3654E70261082651E700264FE704266B
:101DAC004DE700F1040E4EE7A4F10805AD004EE737
:101DBC004FF0030E87E74FF0000E84E74FF0010E53
:101DCC0081E74FF0020E7EE70E4D2A6822EA0302ED
:101DDC002A6087E70B4D6A6822EA03026A6089E78A
:101DEC00084DAA6822EA0302AA608BE7054DEA684F
:101DFC0022EA0303EB608DE703B0F0BD0010024054
:101E0C0000000140000401400000211000003110CE
:101E1C000008014012B90904016170470161704763
:101E2C0098B108B50346D0F8140210B10020C3F8DD
:101E3C00140209B1C3F810121846012380F8FC31C2
:101E4C00027000F095FE002008BD0220704719B109
:101E5C00C0F81412002070470220704708B500F03B
:101E6C00C1FE002008BD08B5D0F8143223B11B68A0
:101E7C00984718B1022008BD022008BD002008BDFB
:101E8C0008B5D0F814325B689847002008BD38B507
:101E9C00044600F502752846FFF760FB0123C4F8E1
:101EAC00F431B4F80E32C4F8F83194F8081201F099
:101EBC001F03012B0ED03BB1022B10D001F080017F
:101ECC00204600F0BCFE03E029462046FFF7C0FC8C
:101EDC00002038BD29462046FFF7DEFCF8E72946EE
:101EEC002046FFF7F5FCF3E710B5044619BB134683
:101EFC00D0F8F421032A27D1D0F80C11D0F81021F6
:101F0C0091420BD8D0F814321B691BB190F8FC210C
:101F1C00032A0ED02046FFF7C8FD15E0891AC0F839
:101F2C000C118A4228BF0A4692B21946FFF7B5FD3A
:101F3C000AE09847EEE70A46D0F814329B691BB1C9
:101F4C0090F8FC11032901D0002010BD11469847D0
:101F5C00FAE710B50446002947D11346D0F8F4210E
:101F6C00022A05D094F80032012B3AD0002010BD83
:101F7C00C169026A914217D88169B1FBF2F302FB85
:101F8C0013132BB98A4203D8D0F8F831994218D3DD
:101F9C00D4F81432DB681BB194F8FC21032A1DD051
:101FAC002046FFF78DFDDDE78A1AC26192B2194611
:101FBC00FFF76BFD00231A461946204600F08AFEF7
:101FCC00D0E700221146FFF760FD0021C4F8F8119C
:101FDC000B460A46204600F07DFEC3E72046984794
:101FEC00DEE7002384F80032C0E70A46D0F814324A
:101FFC005B69002BBAD090F8FC110329B6D11146BD
:10200C009847B3E738B5044640230022114600F048
:10201C00F7FD4025C4F810512B46002280212046A4
:10202C0000F0EEFD2562012384F8FC31D4F818325F
:10203C002BB1D4F814325B682179204698470020E4
:10204C0038BD01740020704790F8FC3180F8FD31E8
:10205C00042380F8FC310020704790F8FD3180F8A3
:10206C00FC310020704708B590F8FC31032B01D0EF
:10207C00002008BDD0F81432DB69002BF8D098474B
:10208C00F6E7000000B583B0214B9A6942F00102DB
:10209C009A619B6903F001030193019B0320FEF7F6
:1020AC00CBFD002211466FF00B00FEF7D7FD00228E
:1020BC0011466FF00A00FEF7D1FD002211466FF0B9
:1020CC000900FEF7CBFD002211466FF00400FEF76D
:1020DC00C5FD002211466FF00300FEF7BFFD002284
:1020EC0011466FF00100FEF7B9FD002211464FF0CA
:1020FC00FF30FEF7B3FD074B5A6822F0E0625A60DE
:10210C005A6842F000725A6003B05DF804FB00BFDD
:10211C00001002400000014084B001A880E80E00CD
:10212C00002004B07047B0F840309BB243F43F43FA
:10213C00A0F8403000207047B0F8403023F47453BE
:10214C005B045B0CA0F84030002070470020704707
:10215C0084B038B505AC84E80E000123A0F84030FB
:10216C000024A0F84040A0F84440A0F85040FFF7ED
:10217C00DAFF2046BDE8384004B0704710B4CB7885
:10218C00032B0FD8DFE803F0026E55610A7830F8A4
:10219C0022309BB223F4EC4323F0700343F400731E
:1021AC0020F822300A7830F8223023F0F0031B0597
:1021BC001B0D134343F4004343F0800320F82230FB
:1021CC008B7A002B40F0B2804B78002B57D0B0F8B4
:1021DC0050309BB20A7803EBC20300EB43038A88AE
:1021EC0052085200C3F800240A7830F8223013F059
:1021FC00400F0BD030F8223023F0F0031B051B0DE1
:10220C0043F4004343F0C00320F822300A7830F83E
:10221C0022309BB223F4E04323F0400383F02003ED
:10222C0043F4004343F0800320F82230002010BC1C
:10223C0070470A7830F822309BB223F4EC4323F039
:10224C0070039BB220F82230ACE70A7830F82230C9
:10225C009BB223F4EC4323F0700343F4C06320F8E7
:10226C0022309FE70A7830F822309BB223F4EC43FB
:10227C0023F0700343F4806320F8223092E7B0F827
:10228C0050309BB20A7803EBC203043300EB4303D8
:10229C008A8852085200C3F80024B0F850309BB220
:1022AC000A7803EBC203063300EB43030C693E2CA4
:1022BC0030D9C4F34F1214F01F0F01D1013A92B26E
:1022CC006FEAC2626FEA524292B2C3F800240A78F3
:1022DC0030F8223013F4804F0BD030F8223023F03A
:1022EC00F0031B051B0D43F4404343F0800320F81F
:1022FC0022300A7830F822309BB223F4804323F04A
:10230C00700383F4405343F4004343F0800320F8FC
:10231C0022308BE7C4F34F0214F0010F01D00132CD
:10232C0092B2920292B2C3F80024D0E70A7830F845
:10233C00223023F4F8731B051B0D43F4014343F0C7
:10234C00800320F82230B0F850309BB20A7803EBAF
:10235C00C20300EB4303CA8852085200C3F800249E
:10236C00B0F850309BB20A7803EBC203043300EB95
:10237C0043030A8952085200C3F800244B78002BFF
:10238C004BD10A7830F8223013F4804F0BD030F850
:10239C00223023F0F0031B051B0D43F4404343F0A4
:1023AC00800320F822300A7830F8223013F0400FE6
:1023BC000BD030F8223023F0F0031B051B0D43F437
:1023CC00004343F0C00320F822300A7830F8223062
:1023DC0023F0F0031B051B0D43F4004343F0C00333
:1023EC0020F822300A7830F822309BB223F4804354
:1023FC0023F0700383F4405348F28004234320F805
:10240C0022300A7830F822309BB223F4E04323F0D8
:10241C004003234320F8223008E70A7830F82230B2
:10242C0013F4804F0BD030F8223023F0F0031B054F
:10243C001B0D43F4404343F0800320F822300A780C
:10244C0030F8223013F0400F0BD030F8223023F04C
:10245C00F0031B051B0D43F4004343F0C00320F8AD
:10246C0022300A7830F8223023F0F0031B051B0DC4
:10247C0043F4404343F0800320F822300B7830F8CB
:10248C00232092B222F4E04222F0400248F280046F
:10249C00224320F823200A7830F822309BB223F410
:1024AC00804323F07003234320F82230BEE68B7A5E
:1024BC00002B44D14B780BB30A7830F8223013F050
:1024CC00400F0BD030F8223023F0F0031B051B0D0E
:1024DC0043F4004343F0C00320F822300A7830F86C
:1024EC0022309BB223F4E04323F0400343F4004337
:1024FC0043F0800320F82230002070470A7830F82F
:10250C00223013F4804F0BD030F8223023F0F0033C
:10251C001B051B0D43F4404343F0800320F822308D
:10252C000A7830F822309BB223F4804323F07003F6
:10253C0043F4004343F0800320F82230DCE710B46E
:10254C004B78002B4BD10A7830F8223013F4804FA3
:10255C000BD030F8223023F0F0031B051B0D43F495
:10256C00404343F0800320F822300A7830F82230C0
:10257C0013F0400F0BD030F8223023F0F0031B0582
:10258C001B0D43F4004343F0C00320F822300A78BB
:10259C0030F8223023F0F0031B051B0D43F40043ED
:1025AC0043F0C00320F822300B7830F8232092B28D
:1025BC0022F4804222F0700248F28004224320F878
:1025CC0023200A7830F822309BB223F4E04323F026
:1025DC004003234320F82230002010BC70470A78B7
:1025EC0030F8223013F4804F0BD030F8223023F027
:1025FC00F0031B051B0D43F4404343F0800320F80C
:10260C0022300A7830F8223013F0400F0BD030F81B
:10261C00223023F0F0031B051B0D43F4004343F061
:10262C00C00320F822300A7830F8223023F0F0036F
:10263C001B051B0D43F4404343F0800320F822306C
:10264C000B7830F8232092B222F4E04222F04002C0
:10265C0048F28004224320F823200A7830F82230F4
:10266C009BB223F4804323F07003234320F82230E1
:10267C00B2E70A788AB14B7813BB30F822309BB2A0
:10268C0023F4804323F0700383F4805343F400431A
:10269C0043F0800320F8223010E030F822309BB257
:1026AC0023F4804323F0400383F4805383F010031E
:1026BC0043F4004343F0800320F82230002070479D
:1026CC0030F822309BB223F4E04323F0400383F034
:1026DC00100343F4004343F0800320F82230EDE76D
:1026EC004B781BB30A7830F8223013F0400F0BD024
:1026FC0030F8223023F0F0031B051B0D43F400438C
:10270C0043F0C00320F822300A7830F822309BB214
:10271C0023F4E04323F0400383F0300343F40043FD
:10272C0043F0800320F82230002070470A7830F8FC
:10273C00223013F4804F0BD030F8223023F0F0030A
:10274C001B051B0D43F4404343F0800320F822305B
:10275C000A7830F822309BB223F4804323F07003C4
:10276C0083F4405343F4004343F0800320F82230B9
:10277C00DAE711B98023A0F84C3000207047002014
:10278C00704700207047B0F8440080B270470020BA
:10279C00704701335B1000EB420202F5806263B1BB
:1027AC0010B40C78487844EA002422F8044B023127
:1027BC00013B002BF5D110BC70477047F8B58A6906
:1027CC004C78012C35D00B699A4240F2F080D21A29
:1027DC008A618A7A002A40F0FA80B0F8502092B2CE
:1027EC000C7802EBC402063200EB42023E2B40F2A4
:1027FC00E280C3F34F1413F01F0F01D1013CA4B2BC
:10280C006FEAC4646FEA5444A4B2C2F800440A7874
:10281C0030F822309BB223F4804323F0700383F40E
:10282C00405343F4004343F0800320F8223000204F
:10283C00F8BD0F69BA4226D9D21B8A610E460546ED
:10284C008B7A23B30B7830F8232012F0400F6CD026
:10285C00002C39D1B0F8502092B202EBC3030633EE
:10286C0000EB43033E2F23D9C7F34F1217F01F0F72
:10287C0001D1013A92B26FEAC2626FEA524292B24D
:10288C00C3F800242AE000238B611746D6E7BBB2BD
:10289C008A884969FFF77DFFB5F850309BB23278D2
:1028AC0003EBC203023305EB4303C3F800742BE0C4
:1028BC00C7F34F0217F0010F01D0013292B292020E
:1028CC0092B2C3F8002409E0B0F8502092B202EBA7
:1028DC00C303023300EB4303C3F800743289BBB269
:1028EC0071692846FFF755FF7378002B4FD132786A
:1028FC0035F8223023F0F0031B051B0D43F4004385
:10290C0043F0C00325F82230327835F822309BB2E0
:10291C0023F4E04323F0400383F0300343F40043FB
:10292C0043F0800325F8223081E724BBB0F8502017
:10293C0092B202EBC303023300EB43033E2F0ED9DA
:10294C00C7F34F1217F01F0F01D1013A92B26FEA81
:10295C00C2626FEA524292B2C3F8002415E0C7F388
:10296C004F0217F0010F01D0013292B2920292B2D3
:10297C00C3F8002409E0B0F8502092B202EBC30374
:10298C00023300EB4303C3F80074F288A7E7012B72
:10299C00BAD1327835F8223023F0F0031B051B0D29
:1029AC0043F4404343F0800325F82230ACE7002386
:1029BC008B6113460DE7C3F34F0413F0010F01D0E5
:1029CC000134A4B2A402A4B2C2F800441FE7C4B9F3
:1029DC00B0F8502092B20C7802EBC402023200EB39
:1029EC0042023E2B29D9C3F34F1413F01F0F01D110
:1029FC00013CA4B26FEAC4646FEA5444A4B2C2F8B6
:102A0C0000444A788ABBB0F8502092B20C7802EBA2
:102A1C00C402063200EB42023E2B1AD9C3F34F1408
:102A2C0013F01F0F01D1013CA4B26FEAC4646FEA2A
:102A3C005444A4B2C2F80044E9E6C3F34F0413F0C3
:102A4C00010F01D00134A4B2A402A4B2C2F8004414
:102A5C00D7E7C3F34F0413F0010F01D00134A4B234
:102A6C00A402A4B2C2F80044D1E6012A7FF4CFAE8E
:102A7C00B0F8502092B20C7802EBC402023200EB98
:102A8C004202C2F80034C2E601335B1000EB420292
:102A9C0002F5806204E0106821F8020B013B04325D
:102AAC00002BF8D17047000002680E4B9A4200D000
:102ABC00704700B583B003F5DA33DA6942F40002EB
:102ACC00DA61DB6903F400030193019B00221146D8
:102ADC001420FEF7C3F81420FEF7F2F803B05DF8EB
:102AEC0004FB00BF005C004008B500F22C41D0F89C
:102AFC005C04FFF7CCF908BD08B500EB4113D3F823
:102B0C003C22D0F85C04FFF7EFF908BD08B500EBE8
:102B1C004113DA6BD0F85C04FFF71BFA08BD08B55B
:102B2C00D0F85C04FFF79FFA08BD10B504460121EC
:102B3C00D0F85C04FFF785FAD4F85C04FFF762FA6E
:102B4C0010BD000010B50446D0F85C04FFF77CFA09
:102B5C00A36923B1024A136943F00603136110BD44
:102B6C0000ED00E008B5D0F85C04FFF776FA08BD7C
:102B7C0010B504461848C0F85C44C4F82002174B42
:102B8C00036008234360022383600323C360002394
:102B9C008361C3610362FDF773FBB8B9182300228C
:102BAC001146D4F82002FDF7CCFF582300228021D7
:102BBC00D4F82002FDF7C5FF4FF480730022812169
:102BCC00D4F82002FDF7BDFF002010BD4FF48D712D
:102BDC000348FEF71DFCE1E7FC010020005C00400F
:102BEC004838000808B5D0F82002FDF7B4FB18B13E
:102BFC00022803D0022008BD002008BD012008BD1A
:102C0C0010B51C4613462246D0F82002FDF7CEFB29
:102C1C0018B1022803D0022010BD002010BD0120E5
:102C2C0010BD08B5D0F82002FDF7E9FB18B1022859
:102C3C0003D0022008BD002008BD012008BD08B546
:102C4C00D0F82002FDF728FF18B1022803D002208B
:102C5C0008BD002008BD012008BD08B5D0F8200231
:102C6C00FDF748FF18B1022803D0022008BD002050
:102C7C0008BD012008BDD0F8202211F0800F06D12C
:102C8C0001F07F0102EB411191F82A02704701F02B
:102C9C007F0302EB431191F82A00704708B5D0F876
:102CAC002002FDF76FFB18B1022803D0022008BDEB
:102CBC00002008BD012008BD08B5D0F82002FDF7A2
:102CCC00E4FB18B1022803D0022008BD002008BD87
:102CDC00012008BD08B5D0F82002FDF7B7FB18B1EC
:102CEC00022803D0022008BD002008BD012008BD29
:102CFC0000487047580100207047704710B5074CCA
:102D0C00002207492046FFF78BF806492046FFF7BB
:102D1C009EF82046FFF7A2F810BD00BF5C0600200D
:102D2C00A00000202C00002012230B8000487047CC
:102D3C00BC00002004230B8000487047D00000200A
:102D4C0008B50A4628B105490548FEF74DFE03486B
:102D5C0008BD02490248FEF747FEF8E7800800204C
:102D6C008838000810B5044C0A4621460348FEF783
:102D7C003BFE204610BD00BF8008002074380008C0
:102D8C0008B50A4628B105490548FEF72DFE03484B
:102D9C0008BD02490248FEF727FEF8E7800800202C
:102DAC00A038000808B50A4628B105490548FEF7C1
:102DBC001BFE034808BD02490248FEF715FEF8E762
:102DCC00800800205838000808B50A4628B1054983
:102DDC000548FEF709FE034808BD02490248FEF704
:102DEC0003FEF8E780080020643800080FB400B533
:102DFC0083B004AB53F8042B01938021064800F0F8
:102E0C00BFF8002803DD0146034800F03EF803B08C
:102E1C005DF804EB04B070476C01002000228A427C
:102E2C0031D24FF06043D3F8803E13F0010F28D01D
:102E3C004FF06043D3F8003E13F0010F21D010B4D3
:102E4C000DE04FF06043D3F8803E13F0010F15D026
:102E5C004FF06043D3F8003E13F0010F0ED04FF04B
:102E6C0060431B68002BFAD004784FF060431C7051
:102E7C00013201308A42E4D3084600E0104610BC0F
:102E8C007047104670470846704708B5FFF7C6FFF5
:102E9C0008BD0000002103E00B4B5B58435004318C
:102EAC000A480B4B42189A42F6D30A4A02E0002316
:102EBC0042F8043B084B9A42F9D3FEF7B3FD00F0FD
:102ECC000FF8FEF7F7FA7047EC3800080000002006
:102EDC003801002038010020840A0020FEE70000A1
:102EEC0070B500250C4E0D4CA41BA410A54209D1A5
:102EFC0000F06AFC00250A4E0A4CA41BA410A54243
:102F0C0005D170BD56F8253098470135EEE756F8D7
:102F1C00253098470135F2E7E4380008E43800081A
:102F2C00E4380008E838000830B5141E05469BB09C
:102F3C00184605DA8B234FF0FF302B601BB030BDE9
:102F4C004FF40273ADF80C300CBF234604F1FF3381
:102F5C00029305934FF6FF7300910491ADF80E3078
:102F6C0002461E9B6946284600F074F8431CBCBF01
:102F7C008B232B60002CE1D00022009B1A70DDE724
:102F8C0007B5009313460A46014603480068FFF74D
:102F9C00CBFF03B05DF804FBD40000202DE9F04713
:102FAC008E6882469E420C469146984635D88A8950
:102FBC0012F4906F31D00223256809696F1A656984
:102FCC0005EB450595FBF3F508F101033B449D42E8
:102FDC0038BF1D46530531D5294600F047FB064640
:102FEC0050B90C23CAF80030A3894FF0FF3043F0DE
:102FFC004003A381BDE8F0873A46216900F0C4FA8A
:10300C00A38923F4906343F08003A38126613E449B
:10301C00266046466561ED1BA560464528BF4646C1
:10302C0049463246206800F0BAFAA36800209B1B80
:10303C00A36023681E442660BDE8F0872A4600F092
:10304C0073FB06460028E1D12169504600F0C2FA14
:10305C00C7E700002DE9F04F9DB003938B898046A4
:10306C001C060D4616460FD50B696BB9402100F0B6
:10307C00FDFA2860286128B90C23C8F800304FF0FD
:10308C00FF30C4E040236B610023099320238DF8AB
:10309C00293030234FF0010B8DF82A3037463C464F
:1030AC0014F8013B002B3CD1B7EB060A0BD053466E
:1030BC00324629464046FFF771FF013000F0A280EE
:1030CC00099B534409933B78002B00F09B80002311
:1030DC004FF0FF3204930793059206938DF853300B
:1030EC001A9305222178504800F040FA671C049B83
:1030FC00D8B9D90644BF20228DF853201A0744BFF3
:10310C002B228DF8532022782A2A16D000210A204F
:10311C00079A27463B780134303B092B50D9C9B16B
:10312C0011E0252BC0D02746B9E73F4A3C46801A10
:10313C000BFA00F018430490D3E7039A111D1268A0
:10314C000391002A01DB079204E0524243F0020390
:10315C00079204933B782E2B0DD17B78791C2A2B6C
:10316C0032D1039B02371A1D1B680392002BB8BF88
:10317C004FF0FF3305932D4C03223978204600F095
:10318C00F5F938B14023001B03FA00F0049B01371A
:10319C00034304933978062225487E1C8DF82810A9
:1031AC0000F0E4F9002835D0224BFBB9039B073320
:1031BC0023F0070308330393099B4B4409936DE7F2
:1031CC0000FB02320121A4E700230A2418460593D0
:1031DC000F463A780131303A092A03D9002BCAD06C
:1031EC000590C8E704FB00200123F1E703AB009333
:1031FC002A46114B04A94046AFF30080B0F1FF3FC3
:10320C008146D9D1AB895B063FF539AF09981DB022
:10321C00BDE8F08F03AB00932A46074B04A9404648
:10322C0000F084F8EAE700BFB0380008B6380008B0
:10323C00BA38000800000000A92F00082DE9F0475B
:10324C0091461F468A680B6906469342B8BF1346DF
:10325C00C9F8003091F843200C46DDF8208012B1FB
:10326C000133C9F800302368990642BFD9F8003001
:10327C000233C9F80030256815F0060507D104F1B2
:10328C00190AE368D9F800209B1A9D422ADB94F8AE
:10329C0043302268003318BF012392062FD404F167
:1032AC00430239463046C047013022D02368E568D6
:1032BC0003F00603042B18BF0025D9F800204FF0AB
:1032CC00000908BFAD1AA368226908BF25EAE57595
:1032DC009342C4BF9B1AED181A344D451BD10020E4
:1032EC00BDE8F0870123524639463046C0470130CD
:1032FC0003D14FF0FF30BDE8F0870135C1E7302036
:10330C00E11881F843005A1C94F84510224402330A
:10331C0082F84310C3E70123224639463046C047A2
:10332C000130E6D009F10109D7E700002DE9F0439F
:10333C0017460A7E85B06E2A984606460C460C9BAC
:10334C0001F1430E00F0BC801AD8632A2ED00AD8A3
:10335C00002A00F0C880582A00F08A8004F1420547
:10336C0084F842202AE0642A01D0692AF6D1216827
:10337C001A6811F0800F23D0111D1960136827E013
:10338C00732A00F0B48008D86F2A2AD0702AE5D1AD
:10339C000A6842F020020A6003E0752A21D0782ADC
:1033AC00DCD178226F4984F8452064E01A6801F179
:1033BC004205111D1960136884F842300123A3E003
:1033CC0011F0400F02F104011960D7D0B2F90030AE
:1033DC00002B03DA2D225B4284F8432062490A2237
:1033EC0017E02068196810F0800F03D0081D1860D2
:1033FC000B6806E010F0400F01F104001860F7D0E4
:10340C000B886F2A14BF0A2208225749002084F81F
:10341C0043006568002DA560C0F29C80206820F0F8
:10342C0004002060002B3FD1002D40F095807546A4
:10343C00082A0BD12368DA0708D5236962689A42F7
:10344C00DEBF302305F8013C05F1FF35AEEB05037B
:10345C002361CDF800803B4603AA21463046FFF796
:10346C00EDFE013055D14FF0FF3005B0BDE8F083D3
:10347C0081F845203C492268186812F0800F00F151
:10348C0004051D6001D0036802E05506FBD50388D6
:10349C00D00744BF42F0200222601BB9226822F000
:1034AC00200222601022B1E77546B3FBF2F002FB5A
:1034BC001033CB5C05F8013D03460028F5D1B7E786
:1034CC0008681A6810F0800F496904D0101D186044
:1034DC001368196007E010F0400F02F10400186047
:1034EC001368F6D01980002375462361B1E71A687A
:1034FC00111D1960156800216268284600F036F825
:10350C0008B1401B606063682361002384F843307A
:10351C009FE723692A4639463046C0470130A2D07E
:10352C0023689B0707D5002504F11909E368039A62
:10353C009B1A9D4205DBE068039B9842B8BF184676
:10354C0093E701234A4639463046C04701308AD0BA
:10355C000135EBE7002BA7D10B7804F1420584F879
:10356C00423065E7D2380008C138000810B5C9B23E
:10357C0002449042034601D1002010BD1C7801305A
:10358C008C42F6D1184610BD10B5431E0A44914228
:10359C0000D110BD11F8014B03F8014FF7E7884239
:1035AC0010B501EB020303D8421E99420CD110BD99
:1035BC009842F9D28118D21AD34200D110BD13F817
:1035CC00014D01F8014DF7E711F8014B02F8014FDD
:1035DC00EBE7000038B50546002943D051F8043C10
:1035EC000C1F002BB8BFE41800F0D4F81E4A136867
:1035FC00104633B9636014602846BDE8384000F0CB
:10360C00CAB8A3420BD921686218934201BF1A6849
:10361C005B685218226063600460EDE713465A68D9
:10362C000AB1A242FAD919685818A0420BD12068E5
:10363C000144581882421960DED110685268014466
:10364C0019605A60D8E702D90C232B60D4E72068A4
:10365C0021188A4201BF1168526809182160626002
:10366C005C60C9E738BD00BFEC01002070B5CD1C13
:10367C0025F0030508350C2D38BF0C25002D06460A
:10368C0001DBA94203D90C233360002070BD00F08C
:10369C0081F8234A1468214691B9224C23681BB93E
:1036AC00304600F067F820602946304600F062F89A
:1036BC00431C26D10C233046336000F06CF8E4E751
:1036CC000B685B1B1AD40B2B0FD90B60CC18CD508D
:1036DC00304600F060F804F10B00231D20F00700C9
:1036EC00C31A1BD05A42E25070BD8C420BBF6368A8
:1036FC004B681360636018BF0C46E9E70C464968D9
:10370C00CAE7C41C24F00304A04205D0211A304699
:10371C0000F030F80130CDD02560D9E770BD00BF86
:10372C00EC010020F0010020F8B5074614460E46C7
:10373C0021B91146BDE8F840FFF798BF22B9FFF751
:10374C0049FF25462846F8BD00F026F884420FD9DB
:10375C0021463846FFF78AFF05460028F2D031464D
:10376C002246FFF711FF31463846FFF733FFE9E7F2
:10377C003546E7E738B50023054C05460846236077
:10378C0000F014F8431C02D1236803B12B6038BD40
:10379C00800A00207047704751F8040C0028A0F1F3
:1037AC000400BCBF0B58C01870470000044A054900
:1037BC001368002B08BF0B4618441060184670475E
:1037CC00F4010020880A0020F8B500BFF8BC08BC42
:1037DC009E467047F8B500BFF8BC08BC9E467047C3
:1037EC0002030405060708090A0B0C0D0E0F101036
:1037FC00010200005372632F6D61696E2E6300002D
:10380C0053797374656D20636C6F636B3A20257507
:10381C0020487A0A0000000064656275675F696E73
:10382C0063203D2025640D0A00000000000000000C
:10383C000000000001020304060708095372632FFD
:10384C00757362645F636F6E662E63004849442033
:10385C00436F6E666967000048494420496E746581
:10386C00726661636500000053544D6963726F6545
:10387C006C656374726F6E696373000053544D33DF
:10388C00322048756D616E20696E74657266616375
:10389C006500000030303030303030303030314165
:1038AC0000000000232D302B2000686C4C00656656
:1038BC006745464700303132333435363738394175
:1038CC00424344454600303132333435363738398B
:0838DC0061626364656600008F
:0438E40031010008A6
:0438E8000D010008C6
:1038EC0000A24A04050C0901A1018502050C150072
:1038FC0025017501950809B509B609B709B809CDAF
:10390C0009E209E909EA8102C0000000E71B00088E
:10391C00C91B0008091B0008000000000000000083
:10392C00F11A000800000000000000000000000078
:10393C0000000000E51A0008E51A0008E51A000866
:10394C00FD1A000809022200010100E032090400FE
:10395C0000010300010009211101000122250007CB
:10396C0005810305000A000009211101000122252F
:10397C00000000000A0600020000004001000000E8
:10398C00352D0008412D0008712D00084D2D000823
:10399C008D2D0008B12D0008D52D00081201000254
:1039AC000000004083042B570002010203010000B9
:1039BC0004030904D80000200000000000000000EF
:1039CC0000000000000000000000000000000000EB
:1039DC0000000000000000000000000000000000DB
:1039EC0000000000000000000000000000000000CB
:1039FC0000000000000000000000000000000000BB
:103A0C0000000000000000000000000000000000AA
:083A1C000000000000000000A2
:0400000508002EA120
:00000001FF
